:020000040000fa
:080000000002040000000000f2
:020000040000fa
:100008009802000098020000980200009802000080
:100018009802000098020000980200009802000070
:100028009802000098020000980200009802000060
:100038009802000098020000980200009802000050
:100048009802000098020000980200009802000040
:100058009802000098020000980200009802000030
:100068009802000098020000980200009802000020
:100078009802000098020000980200009802000010
:10008800980200009802000098020000741800000e
:1000980098020000980200009802000098020000f0
:1000a80098020000980200009802000098020000e0
:1000b80098020000980200009802000098020000d0
:1000c80098020000980200009802000098020000c0
:1000d80098020000980200009802000098020000b0
:1000e80098020000980200009802000098020000a0
:1000f8009802000098020000980200009802000090
:10010800980200009802000098020000980200007f
:10011800980200009802000098020000980200006f
:10012800980200009802000098020000980200005f
:10013800980200009802000098020000980200004f
:10014800980200009802000098020000980200003f
:10015800980200009802000098020000980200002f
:10016800980200009802000098020000980200001f
:10017800980200009802000088040000980200001d
:1001880098020000980200009802000098020000ff
:1001980098020000980200009802000098020000ef
:1001a80098020000980200009802000098020000df
:1001b80098020000980200009802000098020000cf
:1001c80098020000980200009802000098020000bf
:1001d80098020000980200009802000098020000af
:1001e800980200009802000098020000980200009f
:0801f8009802000098020000cb
:020000040000fa
:10020800980200009802000098020000980200007e
:10021800980200009802000098020000980200006e
:10022800980200009802000098020000980200005e
:10023800980200009802000098020000980200004e
:10024800980200009802000098020000980200003e
:10025800980200009802000098020000980200002e
:10026800980200009802000098020000980200001e
:10027800980200009802000098020000980200000e
:10028800980200009802000098020000741800000c
:1002980098020000980200009802000098020000ee
:1002a80098020000980200009802000098020000de
:1002b80098020000980200009802000098020000ce
:1002c80098020000980200009802000098020000be
:1002d80098020000980200009802000098020000ae
:1002e800980200009802000098020000980200009e
:1002f800980200009802000098020000980200008e
:10030800980200009802000098020000980200007d
:10031800980200009802000098020000980200006d
:10032800980200009802000098020000980200005d
:10033800980200009802000098020000980200004d
:10034800980200009802000098020000980200003d
:10035800980200009802000098020000980200002d
:10036800980200009802000098020000980200001d
:10037800980200009802000088040000980200001b
:1003880098020000980200009802000098020000fd
:1003980098020000980200009802000098020000ed
:1003a80098020000980200009802000098020000dd
:1003b80098020000980200009802000098020000cd
:1003c80098020000980200009802000098020000bd
:1003d80098020000980200009802000098020000ad
:1003e800980200009802000098020000980200009d
:0803f8009802000098020000c9
:020000040000fa
:100400000f3421000e7f24000e0188000000000040
:1004100000012000200288000c000700009121004c
:100420000100200011000700000020000000e00093
:10043000020032000000020000000000c8110200ab
:10044000000000000040da000000fe004440a90067
:10045000200b20000000e00003003200000020001c
:10046000a00188004440a800000006009101880017
:10047000800078000000eb0015003700e2804000ab
:1004800032a0b4009101ba00e280400032a0b40072
:100490009102ba00e280400032a0b4000002eb00fa
:1004a000472bde00f507b200602ce10004003a00a3
:1004b0000059eb008301e900fdff3e000400370016
:1004c0006128e100010032000082eb000400070017
:1004d0001101ba000200e000e8ff3a000000060047
:1004e0003159ba008301e9000c0032002159ba00e9
:1004f0008301e900080032000400e00003003a0034
:10050000e280400032a0b400f5ff370011d9ba00f4
:100510008301e900faff3a008100e800e180400031
:1005200032a0b40000000600221604000000000003
:100530000040da000000fe000000fa0016a2a90048
:100540001682a8000080fa00000006000000fa00f1
:1005500000000000b410800061026200e00f520051
:10056000fcff3a00b410800062026200e00f52000b
:10057000f8ff3a00b410800064026200e00f5200fd
:10058000f4ff3a00b410800068026200e00f5200ed
:10059000f0ff3a00b410800070026200e00f5200d9
:1005a000ecff3a00c51080000400240004826200c1
:1005b000e00f5200e7ff3a000080fa00000006005a
:1005c0000000fa001662a80000000000b4108000cd
:1005d00068026200e00f5200fcff3a0018c2a90056
:1005e0008410800004427800044078000080fa0003
:1005f000000006000200fa00004f78009e427800da
:100600000582fb0094108800c510800004082000bb
:1006100004826200e00f52000200320000c2eb00d0
:10062000010037000042eb00044078000080fa002f
:10063000000006000000fa0016a2a8001682a8001a
:100640000080fa00000006000400fa00000f7800a5
:10065000110798001e029000a41088001e02780066
:10066000b41088000080fa00000006000000fa00c4
:100670001602a8000080fa00000006000000fa0040
:100680001642a8000080fa00000006000002780070
:1006900002003700015a78000201e900e00f510022
:0806a000fcff3a000000060017
:020000040000fa
:1006a8001201000000020000000000000008000025
:1006b800d804000053000000000000000102000000
:1006c80000010000090200002000000001010000f4
:1006d80000c0000032090000040000000002000011
:1006e80000000000000000000705000001020000f3
:1006f80040000000010700000581000002400000e2
:100708000001000004030000090400003403000095
:100718004d00000069000000630000007200000046
:100728006f0000006300000068000000690000001e
:100738007000000020000000540000006500000068
:1007480063000000680000006e0000006f000000f9
:100758006c0000006f0000006700000079000000d6
:1007680020000000490000006e0000006300000047
:100778002e000000400300004d000000690000004a
:1007880063000000720000006f00000063000000ba
:1007980068000000690000007000000020000000f0
:1007a80057000000690000006e00000055000000be
:1007b8005300000042000000200000004500000037
:1007c80078000000610000006d000000700000006b
:1007d8006c000000650000002000000044000000dc
:1007e800650000007600000069000000630000005a
:1007f8006500000066830000868300008a8300008d
:04080800be830000ab
:020000040000fa
:10080c000200fa00f40f200074248800f40f20007a
:10081c00542488008804a800040021004822de002b
:10082c00c42488009424a8009424a9000002eb009e
:10083c00b42488000042eb00044f78000800370015
:10084c001e4078000082fb00c222dd000400210063
:10085c00048342006022b800048bbe001e4fe800e7
:10086c001e427800e74f5200f5ff3600d4002000fe
:10087c005425880004003700a448200031c0b30080
:10088c000400780089060700542480006802620086
:10089c00e00f5200f8ff3a000042eb0004407800f1
:1008ac00eaeeb7000042eb0004407800efeeb70030
:1008bc0004ef20001442780060426200044078008b
:1008cc00f0eeb70014ef2000144278006042620092
:1008dc0004407800f1eeb70094a4a9008400210034
:1008ec00147788000042eb0004407800d7eeb70084
:1008fc000042eb0004407800d6eeb7000080fa000e
:10090c00000006003600f800809fbe00829fbe00eb
:10091c00849fbe00869fbe003400f80000002000bb
:10092c00a00188000200fa008ec0a90064ed20002e
:10093c0014427800e14f520007003a00f40f2000f7
:10094c00542488008c04a8008c84a80024c0b30014
:10095c0004407800d6eeb7000424800070026200d8
:10096c00e00f520009003200142480007002620073
:10097c00e00f5200050032000448200041c0b300d3
:10098c000400780049060700b500070044248000e5
:10099c0062026200e00f52007f003a005424800093
:1009ac0061026200e00f52001c00320064248000df
:1009bc0061026200e00f52001800320090ff070045
:1009cc0044c0b30004407800d6eeb700e4ef20003a
:1009dc001480880084c0b3000440780000f0b70095
:1009ec001400210014427800634262000440780035
:1009fc0001f0b7001500210095427800c4c8b3007f
:100a0c0004c272000440780001f0b700a448200032
:100a1c008040eb000400780024060700542480007a
:100a2c0070026200e00f5200090032006424800062
:100a3c0070026200e00f5200050032007c000700db
:100a4c00a448200041c0b30004007800170607003a
:100a5c005424800064026200e00f52000c0032004b
:100a6c006424800064026200e00f5200080032002f
:100a7c00120020008000eb00200020002f0907004e
:100a8c00a448200021c0b30004007800070607002a
:100a9c00552480000408200004826200e00f5200fc
:100aac0006003200652480000408200004826200e5
:100abc00e00f520001003200440007005424800073
:100acc0062026200e00f52000a00320064248000cf
:100adc0062026200e00f5200060032001200200099
:100aec008000eb000080eb0014090700f40f2000dd
:100afc007424880064ed200014427800e34f520007
:100b0c00270036006424800068026200e00f520067
:100b1c00260032000042eb00044f78001a00370028
:100b2c005424800068026200e00f52001e00320064
:100b3c00942480000442780004407800f8eeb7005a
:100b4c00a448200031c0b30004007800d70507008a
:100b5c0084ef2000144278008482fb00040f2000f4
:100b6c0004826200e00f520002003a0048000700c5
:100b7c00040037000001eb0081ef20001000200082
:100b8c00ee0807001e4fe8001e427800e34f5200ab
:100b9c00e3ff3600050037000000000003003700bb
:100bac000000000001003700000000000080fa0087
:100bbc003400f9004f03be004f02be004f01be00cf
:100bcc004f00be003600f900004006000000fa009d
:100bdc005425800062026200e00f52000e003200c9
:100bec00d47680009442900004c8b30084cf5200a5
:100bfc0008003a00147780009442900044c8b30077
:100c0c0084cf520003003a00d5768000c4c8b300ec
:100c1c0094429800aa24a900a448200071c0b300f3
:100c2c0004007800a10507000080fa00000006000f
:100c3c000000fa008284a800a448200041c0b30040
:100c4c0004007800990507000001eb008000eb0020
:100c5c0040002000b90807000080fa0000000600e0
:100c6c000000fa000001eb008000eb0030002000d7
:100c7c00b20807008284a9000448200041c0b300d8
:100c8c0004007800890507000080fa0000000600c7
:100c9c000000fa0084ef2000144278008482fb00ec
:100cac00b4ff2f0004826200e00f52001c003a00d7
:100cbc0084ef2000144278000482fb004222de0004
:100ccc00044278000482fb00c222dd0004002100f3
:100cdc0004824200d4768800d4768000e4768800c2
:100cec00c5ed2000c4ed2000144278000424a200bd
:100cfc00844a7800d47680009402780004c02300e3
:100d0c008482620004402300848f520002003a0067
:100d1c000d0007000a0037003000070008003700fc
:100d2c0084ef2000144278008482fb00b4ff2f0073
:100d3c0004826200e80f520001003a003100070003
:100d4c000080fa00000006000000fa001477800012
:100d5c00940278000400280004826200e00f520024
:100d6c0003003200157780000042eb00944298009b
:100d7c000042eb0004407800e6eeb7000042eb00c6
:100d8c0004407800e7eeb700b4ee2000144278007f
:100d9c006042620004407800ebeeb700c4ee200025
:100dac00144278006042620004407800eceeb70018
:100dbc000042eb0004407800eaeeb700ad000700fb
:100dcc000001eb008000eb00700120005b080700c5
:100ddc00890207000080fa00000006000000fa00fb
:100dec0074ee200014427800e24f520002003a00e8
:100dfc00b5030700010037003d0007000080fa0032
:100e0c00000006000200fa0014778000140278003b
:100e1c004e22de0061426200044f780025ee200075
:100e2c0024ee2000144278000424a200844a7800a6
:100e3c0064ed200014427800e84f52000e003a0096
:100e4c0004f02000144278000482fb00b4248800d3
:100e5c00b4248000e00f52000400320004c1b3003f
:100e6c0004407800d6eeb7000300370044c0b3004e
:100e7c0004407800d6eeb70074ee200014427800df
:100e8c00e14f520017003a001477800065f0200003
:100e9c0015029800ee02070064ee20001442780060
:100eac00e24f520004003a001577800044c8b300aa
:100ebc00944298000c0037001e427800e04f52001c
:100ecc0004003a001577800084ccb300944298005b
:100edc00050037001577800084c8b3009442980051
:100eec0001003700020007000080fa000000060035
:100efc000400fa0074ee200014427800e24f520015
:100f0c002b003a00a5248000040220000482620019
:100f1c00e00f520026003200d47680001442780094
:100f2c00e84f520022003a00d476800094027800f8
:100f3c0004c023008482620004402300848f52008a
:100f4c001b003a00e476800094027800040028002c
:100f5c0004826200e00f520015003a00e476800033
:100f6c00e5ef2000150298000042eb00044f7800da
:100f7c000b0037001e4078008082fb00e4ef20005d
:100f8c00848242001e4278000483fb0064f020003f
:100f9c000402430014427800844a78001e4fe80093
:100fac001e427800e74f5200f2ff36001500370062
:100fbc000042eb0004407800e7eeb700e5768000d5
:100fcc0084c0b300844a7800e4768000e5ef20000a
:100fdc0015029800e5768000c4c8b30094429800ce
:100fec00157780000042eb00944298001477800043
:100ffc000420a200140798009e0290000042eb000f
:10100c0094429800f5ee20009542780004c8b30095
:10101c0004c26200e04f52001400320024ef2000a2
:10102c00144278008482fb0034ef200014427800d4
:10103c000482fb004822dd0005027200e00f520022
:10104c000900320024ef2000144278008482fb0057
:10105c0034ef2000144278000482fb004822dd00ab
:10106c000502720004000100efeea9000080fa00f6
:10107c00000006000000fa00e4ef200014427800a3
:10108c000446b200e04f520062003a00f4ef200038
:10109c00144278000482fb00cfa2de00b6002000d0
:1010ac0007002000860f5200878f5a005b003e001d
:1010bc00046001002a0037002b003700590037006c
:1010cc002900370057003700060037000a003700a8
:1010dc004b0037000c0037000900370024003700a4
:1010ec003d003700eaeea80084c0b300044078004d
:1010fc00d6eeb7004c003700be0007004a003700a0
:10110c00840307004800370075ed2000f40f200021
:10111c000483620084ee2000144278006042620076
:10112c000642720004407800e8eeb700c82ade00e0
:10113c0094ee200014427800604262000542720076
:10114c0004407800e9eeb700ea0ea80014c0b30022
:10115c0004407800ebeeb700eaeea800320037004e
:10116c004201070030003700310007002e00370025
:10117c0024f02000144278008482fb0084ed2000cf
:10118c0084824200f40f20000483620084ee20006d
:10119c0014427800604262000642720004407800fb
:1011ac00e8eeb700c82ade0094ee20001442780066
:1011bc00604262000542720004407800e9eeb7001c
:1011cc00ea0ea80014c0b30004407800ebeeb700a0
:1011dc00eaeea80014003700eaeea80024f0200084
:1011ec00144278000483fb0004f0200014427800c1
:1011fc0085ed200085024300844a78000a00370000
:10120c000001eb008000eb00600120004b070700a1
:10121c00050037000000000003003700000000004c
:10122c0001003700000000000080fa0000000600fa
:10123c000400fa0004f0200014427800e14f520040
:10124c000f003a00e4ef2000144278007f42620065
:10125c00e04f52000a003a00eaeea800f4ef20003a
:10126c0014427800e34f520003003a0014002000af
:10127c00b4778800020037000002eb00b4778800d6
:10128c0004f0200014427800e04f520057003a005e
:10129c00e4ef2000144278007f426200e24f5200db
:1012ac0052003a0024f02000144278006f42620091
:1012bc00e04f52004d003200eaeea80025f020006d
:1012cc009542780004c8b30004c26200e04f52009b
:1012dc000a003a0024f02000144278006f426200a9
:1012ec000482fb0084024200e4ed200004824200f0
:1012fc0014027800140798000900370024f020002d
:10130c00144278006f4262000482fb0084024200a7
:10131c0024ee200004824200140278001407980086
:10132c00f4ef200014427800e34f520004003a001e
:10133c009e02900044c8b300944298002b003700e2
:10134c0024f02000144278006f4262000482fb00fb
:10135c000402420084027800a44a2000048f420058
:10136c001e02780094027800d4ff2f008482620061
:10137c001e027800050a780025f0200095427800be
:10138c0004c8b30004c26200e04f52000c003200eb
:10139c009e0290000042eb00944298008e82e8007e
:1013ac000e82e800144278000424a200844a7800db
:1013bc009e02900004c4b300944298000b003700c6
:1013cc009e02900084c8b300944298008e82e8007c
:1013dc000e82e800144278000424a200844a7800ab
:1013ec009e02900084ccb300944298000080fa00d6
:1013fc00000006000000fa00e5ef2000954278009e
:10140c0004c8b30084cf520096003a0004ccb30059
:10141c0004407800eaeeb70014f020001442780083
:10142c000482fb00e20f520020003200e30f520056
:10143c004f003200e10f520086003a00453528007b
:10144c00f40f20000483620084ee20001442780024
:10145c00604262000642720004407800e8eeb70079
:10146c00c82ade0094ee200014427800604262002c
:10147c000542720004407800e9eeb700b4ee20009b
:10148c0014427800604262002441b30004407800aa
:10149c00ebeeb700c4ee200014427800604262000c
:1014ac0004407800eceeb7006e00370004f020002a
:1014bc00144278000482fb0004024200840278008b
:1014cc00e43f28000482420094027800f40f2000cc
:1014dc000483620084ee20001442780060426200b3
:1014ec000642720004407800e8eeb700c82ade001d
:1014fc0094ee2000144278006042620005427200b3
:10150c0004407800e9eeb70084ee20001442780025
:10151c008482fb0094ee2000144278000482fb00cd
:10152c004822dd00050272000482e8009402780073
:10153c00f40f200004836200b4ee20001442780003
:10154c00604262000642720004407800ebeeb70085
:10155c00c82ade00c4ee200014427800604262000b
:10156c000542720004407800eceeb7003d003700f5
:10157c0004f0200014427800e24f520031003e008b
:10158c0004f02000144278000482fb0004024200a4
:10159c0084027800044028000482420094027800ff
:1015ac00f40f20000483620084ee200014427800c3
:1015bc00604262000642720004407800e8eeb70018
:1015cc00c82ade0094ee20001442780060426200cb
:1015dc000542720004407800e9eeb70084ee20006a
:1015ec00144278008482fb0094ee200014427800b0
:1015fc000482fb004822dd000502720014427800d0
:10160c008482fb00f40f200004836200b4ee2000ff
:10161c001442780060426200064272000440780076
:10162c00ebeeb700c82ade00c4ee200014427800ae
:10163c00604262000542720004407800eceeb70094
:10164c00080037000042eb0004407800eaeeb700d7
:10165c00040037000042eb0004407800eaeeb700cb
:10166c00000000000080fa00000006000200fa00f2
:10167c000042eb000440780006efb7000042eb009c
:10168c000440780007efb700e4ef20001442780024
:10169c007f4262000482fb00e10f52001300320013
:1016ac00e20f520013003200e00f520036003a00f5
:1016bc00eaeea80064f02000144278000404a000b4
:1016cc000440780006efb700b4778000e10f5200b9
:1016dc002a003a0064f02000144278000414a000a0
:1016ec000440780006efb70027003700eaeea800a8
:1016fc0025003700eaeea80025f02000954278007e
:10170c0004c8b30004c26200e04f520009003a0062
:10171c0024f02000144278006f4262000482fb0027
:10172c0084024200e4ed200004824200140f780091
:10173c000800370024f02000144278006f42620049
:10174c000482fb008402420024ee2000048242004a
:10175c00140f78001e027800144290000482fb00e3
:10176c0064026200e00f52000600320014c0b300a5
:10177c000440780006efb7000300370000000000bb
:10178c000100370000000000a5ee20009542780013
:10179c0004c8b30004c26200e04f520014003200cf
:1017ac0065f02000f40f20000483620084ee20001a
:1017bc0014427800604262000642720004407800d5
:1017cc00e8eeb700c82ade0094ee20001442780040
:1017dc00604262000542720004407800e9eeb700f6
:1017ec00ea0ea80024c0b30004407800ebeeb7006a
:1017fc000080fa00000006000000fa0094a4a90082
:10180c00a5ee20009542780004c8b30004c2620023
:10181c00e04f520026003a00f5ee20009542780089
:10182c0004c8b30004c26200e04f5200130032003f
:10183c0024c0b30004407800e7eeb70015778000b1
:10184c000042eb00844a78001577800084ccb3000a
:10185c0094429800e576800084c0b300844a7800f6
:10186c00e476800065f0200015029800e576800093
:10187c0084ccb3009442980073003700e576800066
:10188c0084c0b300844a7800e4768000e5ef200041
:10189c0015029800e5768000c4c8b3009442980005
:1018ac001577800044c8b300944298006600370056
:1018bc00f5ee20009542780004c8b30004c2620023
:1018cc00e04f520060003a00e5ef200095427800ae
:1018dc0004c8b30004c26200e04f5200480032005a
:1018ec0044f02000144278008482fb0054f0200065
:1018fc00144278000482fb004822dd0005027200cd
:10190c0084027800b4ee2000144278000483fb00bb
:10191c00c4ee2000144278000482fb004822dd0053
:10192c0006027200848f52001800310044f020002f
:10193c00144278008482fb0054f02000144278009a
:10194c000482fb004822dd0005027200840278004c
:10195c00f40f200004836200b4ee200014427800df
:10196c00604262000642720004407800ebeeb70061
:10197c00c82ade00c4ee20001442780060426200e7
:10198c000542720004407800eceeb700300007000e
:10199c0014c0b30004407800e7eeb700e576800091
:1019ac0084c0b300844a7800e4768000e5ef200020
:1019bc0015029800e576800004c8b30094429800a4
:1019cc00d576800084c0b300844a7800d476800039
:1019dc00e5ef200015029800d576800004c8b3000e
:1019ec00944298001477800065f02000150298004e
:1019fc001577800084ccb300944298001200370015
:101a0c0024c0b30004407800e7eeb70015778000df
:101a1c000042eb00844a78001577800084ccb30038
:101a2c0094429800e576800084c0b300844a780024
:101a3c00e476800065f0200015029800e5768000c1
:101a4c0084ccb300944298000080fa000000060099
:101a5c000200fa00b4ee2000144278008482fb00ed
:101a6c00c4ee2000144278000482fb004822dd0002
:101a7c0005027200e70f520019003e00b4ee200080
:101a8c00144278008482fb00c4ee200014427800db
:101a9c000482fb004822dd0005027200040f78006e
:101aac0064ee200014427800e04f520004003a002b
:101abc0014c0b30004407800e6eeb7000a0037000b
:101acc0064ee200014427800e14f520006003a0008
:101adc0024c0b30004407800e6eeb70002003700e3
:101aec0084002000040f78001677800014778000a3
:101afc00944290001e42900004c27200144398005d
:101b0c00157780001e427800844a7800b4ee2000dd
:101b1c00144278008482fb00c4ee2000144278004a
:101b2c000482fb004822dd0005027200840278006a
:101b3c001e02780084825200f40f2000048362009d
:101b4c00b4ee20001442780060426200064272003b
:101b5c0004407800ebeeb700c82ade00c4ee20008b
:101b6c001442780060426200054272000440780022
:101b7c00eceeb70064f02000a4778800a4ee2000ff
:101b8c001442780061426200e04f520048003a0073
:101b9c0021003700a677800084ee200014427800e4
:101bac008482fb0094ee2000144278000482fb0037
:101bbc004822dd000502720084027800154278008c
:101bcc00044b78000602e800a47788008502e80040
:101bdc00f40f20000483620084ee2000144278008d
:101bec00604262000642720004407800e8eeb700e2
:101bfc00c82ade0094ee2000144278006042620095
:101c0c000542720004407800e9eeb7001e0278002d
:101c1c000402e900040f78001e027800e00f520065
:101c2c00dcff3a0026003700a677800084ee200007
:101c3c00144278008482fb0094ee20001442780059
:101c4c000482fb004822dd00050272008402780049
:101c5c0015427800044b78000602e800a47788004f
:101c6c008502e800f40f20000483620084ee20005b
:101c7c001442780060426200064272000440780010
:101c8c00e8eeb700c82ade0094ee2000144278007b
:101c9c00604262000542720004407800e9eeb70031
:101cac001e0278000402e900040f780001003700de
:101cbc00000000001e027800e00f5200daff3a002c
:101ccc000080fa00000006000200fa00d4768000c2
:101cdc00144f78001e4078008082fb0004ef200037
:101cec00144278000483fb0014ef200014427800a7
:101cfc000482fb004822dd0006027200848f520031
:101d0c000a00360004ef2000144278008482fb00a5
:101d1c0014ef2000144278000482fb004822dd00fe
:101d2c0005027200044f78001b00370004ef2000fe
:101d3c00144278008482fb0014ef200014427800d7
:101d4c000482fb004822dd00050272008402780048
:101d5c001e4378000682fb0084825200f40f2000a0
:101d6c000483620004ef2000144278006042620099
:101d7c000642720004407800f0eeb700c82ade007c
:101d8c0014ef200014427800604262000542720099
:101d9c0004407800f1eeb7000042eb0014479800c5
:101dac0022003700d4ee2000144278008482fb001d
:101dbc00e4ee2000144278000482fb004822dd008f
:101dcc0005027200840278001e4290000483fb001e
:101ddc0064f020000402430014427800844a780026
:101dec008502e800f40f200004836200d4ee20008a
:101dfc00144278006042620006427200044078008f
:101e0c00edeeb700c82ade00e4ee200014427800a4
:101e1c00604262000542720004407800eeeeb700aa
:101e2c001e4290000442e800144798001e429000a5
:101e3c009e4f5200dbff390004ef20001442780063
:101e4c008482fb0014ef2000144278000482fb0013
:101e5c004822dd0005027200e00f5200140032002f
:101e6c00e576800084c0b300844a7800e476800074
:101e7c0065f0200015029800d4768000940278005a
:101e8c000400240004826200e00f520004003a00b7
:101e9c00e576800084ccb300944298001b00370098
:101eac00e576800084c8b300944298001700370090
:101ebc00e4768000e5ef20001502980024ef200066
:101ecc00144278008482fb0034ef20001442780026
:101edc000482fb004822dd0005027200e00f520074
:101eec000900320024ef2000144278008482fb00a9
:101efc0034ef2000144278000482fb004822dd00fd
:101f0c000502720004000100efeea9000080fa0047
:101f1c00000006000000fa00eaeea8001200200003
:101f2c008000eb0080ed2000d5f9070004f02000c4
:101f3c001442780004407800d7eeb70004f020007b
:101f4c0014427800e04f520004003a0004c1b30080
:101f5c0004407800d6eeb7000700370004c2b30087
:101f6c0004407800d6eeb7000001eb008000eb00d7
:101f7c0050012000f10307000080fa000000060069
:101f8c000400fa0020479800314798000400210013
:101f9c00040f78002e4290000482fb0004024200e1
:101fac00840278003e4290000482fb0004824200ce
:101fbc004322dd004222de004222dd001e0f4200e1
:101fcc009e0278001502780004f0a100840a7800c3
:101fdc003e429000e04f520007003a002e42900023
:101fec000482fb0084024200e4ed200004824200e3
:101ffc001e0a7800060037002e4290000482fb0077
:10200c008402420024ee2000048242001e0a780062
:10201c009e0278001502780004e0a100840a780082
:10202c001e027800e40242001502780004e0a000d1
:10203c00840a78000080fa00000006000400fa0010
:10204c002047980031479800a54a20002e42900066
:10205c000482fb0004024200048f42001e0278003e
:10206c00be429000054a78003e4290000482fb007c
:10207c0068026200e00f5200030032008040eb0067
:10208c002e409000beff07003e4290000482fb00f1
:10209c0064026200e00f52000300320011c0b30072
:1020ac002e409000b6ff07000080fa0000000600ea
:1020bc000400fa0020479800314798002e42900007
:1020cc00e04f52000d003a00e576800084c0b3006a
:1020dc00844a7800e4768000e5ef20001502980031
:1020ec00e5768000c4c8b300944298001577800050
:1020fc0044c8b30094429800220037002e4290004e
:10210c000482fb0004024200840278003e429000ec
:10211c000482fb00048242004322dd00840278002a
:10212c0004002100048f42001e02780094429000ab
:10213c0044c8b30004c272009e0278009442980016
:10214c002e4290000482fb000402420084027800bc
:10215c003e4290000482fb00048242004322dd00d8
:10216c00e402420004002100048f42001e027800a9
:10217c009442900044c8b30004c272009e027800de
:10218c00944298000080fa00000006000800fa0053
:10219c002047980031479800220798006347980021
:1021ac003e429000e04f5200070032002e42900059
:1021bc000482fb008402420024ee200004824200d0
:1021cc00140f7800060037002e4290000482fb00aa
:1021dc0084024200e4ed200004824200140f7800d7
:1021ec001e027800ae029000150298001e027800c4
:1021fc00ee429000054a78001e02780014429000ce
:10220c000444b2009e027800944298001e027800aa
:10221c009442900084c8b30004c272009e027800fd
:10222c00944298003e429000e04f52000e00320063
:10223c0025ee20002e4290000482fb000402420096
:10224c008482420026ee20002e4290000482fb0085
:10225c000402420004024300144278000424a20049
:10226c00844a78000d003700e5ed20002e429000e6
:10227c000482fb000402420084824200e6ed20004e
:10228c002e4290000482fb00040242000402430030
:10229c00144278000424a200844a78001e027800bc
:1022ac00040078000080fa00000006000400fa0028
:1022bc00000f7800214798002e4290000482fb000a
:1022cc0015002000042add00044278009e027800ec
:1022dc00844a78000080fa00000006000000fa0032
:1022ec002424800068026200e00f520008003a00cb
:1022fc000002eb00a42488000002eb006424880098
:10230c000042eb0004407800d6eeb700000000005d
:10231c000080fa00000006000000fa0064ed2000c6
:10232c0014427800e04f520014003a000002eb0017
:10233c00a42488000002eb0064248800010037000c
:10234c009404a800a424800061026200e00f5200f3
:10235c00fbff320014c0b30004407800d6eeb70087
:10236c0024002000342588000002eb00442588005e
:10237c00b4092000642488009ec0a8000080fa00e4
:10238c00000006000200fa000f020700ea62a90032
:10239c00812c200000002800a8f807000002eb00a8
:1023ac00847688000002eb009476880014f907000c
:1023bc00d9ff07000002eb00040f78000002eb00cd
:1023cc00044088000082eb00144088000002eb00ff
:1023dc00244088000082eb00344088005400200028
:1023ec0034518800ea62a900b2000700040007001b
:1023fc0066000700ea62a80043020700f9ff3700f5
:10240c000400fa0034c0b300044f780094f80700bd
:10241c004bf807009e4278000582fb000402420044
:10242c00044278000404a000044078006ef8070011
:10243c0043f807005ff80700004278001447980043
:10244c003ff8070039f807003df8070000000000ce
:10245c00b410800070026200e00f5200fcff3a00e2
:10246c0054f80700004278002447980034f807001d
:10247c002ef8070032f8070000000000b4108000ae
:10248c0070026200e00f5200fcff3a0049f80700ae
:10249c00004278003447980029f8070062f80700da
:1024ac0027f8070000000000b410800070026200e2
:1024bc00e00f5200fcff3a0021f807006cf807000f
:1024cc001ff807001e4290000482fb000451880094
:1024dc002e4290000482fb00145188003e42900072
:1024ec000482fb00245188000080fa0000000600e2
:1024fc000200fa0034c0b300044f780058f807000b
:10250c000ff807009e4278000582fb00040242008f
:10251c00044278000440780033f8070008f80700fc
:10252c0070c7b30030f8070005f8070050f8070033
:10253c0003f807000080fa00000006000400fa000f
:10254c002047980024c0b300044f780044f80700db
:10255c00fbf707009e4278000582fb000402420054
:10256c0004427800044078001ff80700f4f70700d5
:10257c002e4090001cf80700f1f707003cf807000c
:10258c00eff707000080fa00000006000600fa00d2
:10259c0024c0b300044f780031f80700e8f70700b7
:1025ac009e4278000582fb0004024200044278003f
:1025bc000404a000044078000bf80700e0f70700c3
:1025cc00fcf707000042780014479800dcf707007e
:1025dc00d6f70700daf7070000000000b4108000ff
:1025ec0070026200e00f5200fcff3a00f1f70700a6
:1025fc000042780024479800d1f70700cbf707007a
:10260c00cff7070000000000b410800070026200d9
:10261c00e00f5200fcff3a00e6f70700004278009a
:10262c0034479800c6f70700c0f70700c4f7070047
:10263c0000000000b410800070026200e00f520035
:10264c00fcff3a00dbf70700004278004447980093
:10265c00bbf70700f4f70700b9f70700000000000c
:10266c00b410800070026200e00f5200fcff3a00d0
:10267c00b3f70700fef70700b1f707001e42900002
:10268c000482fb00c45088002e4290000482fb00a0
:10269c00d45088003e4290000482fb00e450880035
:1026ac004e4290000482fb00f45088000080fa0037
:1026bc00000006000800fa000002eb00040f78008e
:1026cc000002eb00140798000002eb0024079800ae
:1026dc000002eb00340798004519800004fe2f001f
:1026ec0004826200f400b30044198800c003200087
:1026fc004501070085a0a9002043a80000000000a8
:10270c00250480000400220004826200e00f5200c5
:10271c00fbff32002043a90004188000c46188002c
:10272c0085a0a9002043a80000000000250480001b
:10273c000400220004826200e00f5200fbff320012
:10274c002043a900c5618000041880000482420067
:10275c00c461880085a0a9002043a80000000000e7
:10276c00250480000400220004826200e00f520065
:10277c00fbff32002043a900c561800004188000d3
:10278c0004824200c461880085a0a9002043a800ef
:10279c000000000025048000040022000482620076
:1027ac00e00f5200fbff32002043a900c5618000fe
:1027bc000418800004824200c46188000002eb000f
:1027cc0014079800f70037001e029000e00f52002b
:1027dc0002003a00e202a90006003700e202a8005b
:1027ec001e029000e10f520002003a00300020005f
:1027fc0005010700e222a8003000200002010700ba
:10280c00e222a9000002eb00040f7800df00370081
:10281c001e0278000482d1007622b900840278006e
:10282c001e02900004824200340798001e027800b9
:10283c00e00f520002003a00e242a8000600370006
:10284c00e242a9001e027800e10f520002003a0099
:10285c0030002000ec000700e262a800c00320005a
:10286c00e9000700e262a9009e0278006182620022
:10287c00e00f52004f003a0085a0a9002043a800a9
:10288c000000000025048000040022000482620085
:10289c00e00f5200fbff32002043a9000518800016
:1028ac003e0290000403420084a220000402430074
:1028bc00050a780085a0a9002043a80000000000ac
:1028cc00250480000400220004826200e00f520004
:1028dc00fbff32002043a9003e029000840242001c
:1028ec0084a2200004824200940278000418800024
:1028fc00848242003e0290000403420084a2200025
:10290c0004024300050a780085a0a9002043a80012
:10291c0000000000250480000400220004826200f4
:10292c00e00f5200fbff32002043a9003e02900052
:10293c008402420084a220000482420094027800a7
:10294c0004188000848242003e029000040342007e
:10295c0084a2200004024300050a780085a0a90087
:10296c002043a80000000000250480000400220081
:10297c0004826200e00f5200fbff32002043a900ea
:10298c003e0290008402420084a220000482420095
:10299c009402780004188000848242003e02900069
:1029ac000403420084a2200004024300050a7800bc
:1029bc007500370085a0a9002043a8000000000086
:1029cc00250480000400220004826200e00f520003
:1029dc00fbff32002043a9003e0290000402e800f5
:1029ec00051880000403420084c320000402430045
:1029fc00050a780085a0a9002043a800000000006b
:102a0c00250480000400220004826200e00f5200c2
:102a1c00fbff32002043a9003e0290000402e800b4
:102a2c00be0290008502e8000583420085c32000a9
:102a3c0085024300150378000518800085024300c9
:102a4c000403420084c3200004024300050a7800fa
:102a5c0085a0a9002043a8000000000025048000e8
:102a6c000400220004826200e00f5200fbff3200df
:102a7c002043a9003e0290000402e800be02900030
:102a8c008502e8000583420085c3200085024300cf
:102a9c0015037800051880008502430004034200ea
:102aac0084c3200004024300050a780085a0a90015
:102abc002043a80000000000250480000400220030
:102acc0004826200e00f5200fbff32002043a90099
:102adc003e0290000402e800be0290008502e8006d
:102aec000583420085c3200085024300150378004e
:102afc0005188000850243000403420084c32000b3
:102b0c0004024300050a78003e0290008402420051
:102b1c0084a2200004824200940278003e029000bd
:102b2c000403420084c32000040243001403780011
:102b3c003e0290000402e8008403420084c320009b
:102b4c000482430014027800040243000402d10002
:102b5c00048252004222de00240798003e029000bc
:102b6c00e40242002e029000e00f520001003d00f2
:102b7c000002eb00040378008582420004802000f0
:102b8c0004824200060a78001e0fe8001e0278003c
:102b9c00f70f52001eff34001e0290000402e800e2
:102bac00140798001e029000f50f520006ff340027
:102bbc00e222a8003000200013000700e222a90046
:102bcc000080fa00000006000000fa000082eb0012
:102bdc00441688002462210004000100040f200028
:102bec0004178800e802a900e822a900e862a900fd
:102bfc00e882a900e8a2a900ea62a900ea82a8007a
:102c0c000080fa00000006000200fa00000f7800b5
:102c1c0004002800240888000002eb000408880047
:102c2c0000000000040880009e0f5200fdff3900d8
:102c3c000080fa00000006000000fa002de3a90055
:102c4c002dc3a9002da3a9002d83a9002d63a900d4
:102c5c002d43a9002d23a9002d03a9002ce3a900c5
:102c6c002cc3a9001419800004d0a10004e0a10019
:102c7c0004f0a100141988000042eb000440780015
:102c8c0024e3b700041980000450a0000460a000e5
:102c9c000470a0000419880025198000f40f2e0080
:102cac00848262000470210004827200241988005e
:102cbc00041980000480a1000490a100041988006c
:102ccc00141980000420a1000430a1000440a100cc
:102cdc000450a1001419880028e3a90045198000ac
:102cec0004fe2f0004826200f400b3004419880033
:102cfc0029e3a9000002eb008419880021e3a80055
:102d0c000080fa00000006000200fa0064ed2000ca
:102d1c0014427800ff4f52004e00360044248000cd
:102d2c0062026200e00f52004c003a000002eb001d
:102d3c00040f780016003700000000009476800025
:102d4c00e00f520006003200947680009402780066
:102d5c000400280004826200e00f5200f7ff3a00e2
:102d6c00058020001e0278004622dd00048242000d
:102d7c0003c4b3000401780011c0b30010c0b30049
:102d8c0002fd070000027800947688001e0fe80010
:102d9c001e027800e90f5200e7ff3400000000002b
:102dac0084768000e00f52000600320084768000aa
:102dbc00940278000400280004826200e00f5200a4
:102dcc00f7ff3a0003c4b300e2e420008040eb00bc
:102ddc0010c0b300edfc0700000278008476880078
:102dec00e4e4200014427800e04f52000a00320064
:102dfc00e4e420001442780004407800cffd070082
:102e0c00e5e420009542780074c7b30084cf5200eb
:102e1c0001003a00b6fd0700e4e4200014427800fb
:102e2c00e04f52000e003200a4788000e00f5200f8
:102e3c0004003200eaa2a9000002eb00a47888008a
:102e4c0007003700eaa2a80014002000a47888002c
:102e5c0003003700000000000100370000000000f4
:102e6c000080fa00000006000000fa002400200098
:102e7c00d408880004002200f40888008760a900a8
:102e8c009760a8000080fa00000006000000fa001d
:102e9c000080fa00000006000000fa000080fa0032
:102eac00000006000000fa000080fa000000060096
:102ebc000000fa000080fa00000006000000fa0092
:102ecc000080fa00000006000000fa000080fa0002
:102edc00000006000000fa00d1c1b30010c0b3001e
:102eec0056fc070003c4b300e2e420008040eb0072
:102efc0010c0b300a5fc070000027800847688009f
:102f0c000080fa00000006000000fa009444a800bb
:102f1c0084702000a4768800a47680000402e90066
:102f2c00a4768800a4768000e00f5200faff3a00e5
:102f3c009444a9000080fa00000006000600fa0084
:102f4c00000f780011079800220798001e027800e5
:102f5c00e40f52001d003200e40f520007003e0047
:102f6c00e20f520017003200e20f520019003e002f
:102f7c00e10f52001b0032001c003700f60f52000c
:102f8c000c003200f60f520003003e00f50f520009
:102f9c000600320015003700f70f52000700320010
:102fac00e10f42000d00320010003700c9ff07008e
:102fbc000e003700c4ff07000c003700bfff0700ee
:102fcc000a003700b7ff070008003700afff070003
:102fdc0006003700b0ff070004003700b4ff0700fd
:102fec000200370000000000000000001400200068
:102ffc00040078000080fa00000006000600fa00c9
:10300c000002eb00240798000002eb00040f78008c
:10301c001d0037000002eb00140798001500370064
:10302c0021e3a8002023a800000000000419800060
:10303c0061026200e00f5200fcff32001e027800b9
:10304c00c622dd001e029000048242000618800099
:10305c00f50f200085026300040342000480200069
:10306c0004024300050a78001e0290000402e800e6
:10307c00140798009e029000f4032000848f5200e5
:10308c00e7ff36001e0fe8001e027800f30f520017
:10309c00e0ff36000080fa00000006000000fa0095
:1030ac00c802a8000002eb0064198800640e20001e
:1030bc00041988000002eb00141988000410200089
:1030cc00241988000002eb00441988001400200029
:1030dc00841988000080fa000000060000a0fe00a1
:1030ec003600f800849fbe00869fbe003400f800b6
:1030fc0004002000a40188000000fa008760a900e9
:10310c005672800067728000f44a2000050020008f
:10311c00840f5300858f5b0005003e0054728000c5
:10312c006572800061024200e0824a0001003700b3
:10313c006022b80054728800657288005672800054
:10314c0067728000044b200005002000840f5300a0
:10315c00858f5b0028003a001400200084788800da
:10316c000002eb00747888001800370000000000a3
:10317c0094768000e00f52000600320094768000b6
:10318c00940278000400280004826200e00f5200d0
:10319c00f7ff3a0005802000747880004722dd009c
:1031ac000482420003c4b3000401780011c0b300d0
:1031bc0010c0b300f5fb070000027800947688007d
:1031cc00747880000402e8007478880074788000b9
:1031dc00f30f5200e5ff340085178000041820001f
:1031ec0004826a008417880085178000040620007a
:1031fc0004826a00841788000080fa003400f90009
:10320c004f03be004f02be003600f9000080fe00e6
:04321c000040060068
:020000040000fa
:10322000d60e000038000000000000000010000072
:10323000200000000000000000080000d60600008a
:10324000000000000e0f0000080000000200000057
:10325000000000000000000000000000000000006e
:020000040000fa
:020000040005f5
:0457f400ffff0000b3
:020000040000fa
:020000040005f5
:0457f800be5300009c
:020000040000fa
:020000040005f5
:0457fc007f3f0000eb
:00000001FF
